:020000040800F2
:100000000050002065750008290200082D02000834
:100010003102000835020008390200080000000023
:100020000000000000000000000000003D02000889
:1000300041020008000000004502000849020008D3
:10004000AD750008AD750008AD750008AD75000808
:10005000AD750008AD750008AD750008AD750008F8
:10006000AD750008AD750008AD750008AD750008E8
:10007000AD750008AD750008AD750008AD750008D8
:10008000AD750008AD750008AD750008AD750008C8
:10009000AD750008AD750008AD750008AD750008B8
:1000A000AD750008AD750008AD750008AD750008A8
:1000B000AD750008AD750008AD750008AD75000898
:1000C000AD750008AD750008AD750008AD75000888
:1000D000AD750008516C0008AD750008AD750008DD
:1000E000AD750008AD750008AD750008AD75000868
:1000F000AD750008AD750008AD750008AD75000858
:10010000AD750008AD750008AD750008AD75000847
:10011000AD750008AD750008AD750008AD75000837
:10012000AD750008AD750008AD750008AD75000827
:1001300000000000000000000000000000000000BF
:1001400000000000000000000000000000000000AF
:10015000000000000000000000000000000000009F
:10016000000000000000000000000000000000008F
:10017000000000000000000000000000000000007F
:10018000000000000000000000000000000000006F
:10019000000000000000000000000000000000005F
:1001A000000000000000000000000000000000004F
:1001B000000000000000000000000000000000003F
:1001C000000000000000000000000000000000002F
:1001D000000000000000000000000000000000001F
:0401E0005FF8E0F1F3
:1001E80010B5054C237833B9044B13B10448AFF369
:1001F80000800123237010BD900000200000000043
:10020800E401000808B5034B1BB103490348AFF3E9
:10021800008008BD0000000094000020E4010008F0
:10022800704700BFFEE700BFFEE700BFFEE700BF64
:10023800FEE700BF704700BF704700BF704700BFB0
:10024800704700BF2DE9F04F81B0BABBA0F1070E8F
:10025800A1F10F08C41D01F10F05A0F10F07A1F1CD
:10026800070C00F10F06CB1D1FFA8EF91FFA8CFA46
:100278001FFA88F8BFB205221FFA83FBB6B204F052
:100288001DFA53463A464146484604F089F9A4B255
:10029800414648465B463246ADB204F081F95346C2
:1002A8003A462946204604F07BF95B463246294601
:1002B800204601B0BDE8F04F04F072B9012AD3D14D
:1002C80000F1070EA1F10F08C41F01F10F05A0F1FD
:1002D8000F0701F1070C00F10F06CB1FC4E700BFA1
:1002E800002370B505460C4600F13C06B6B232460E
:1002F800194604F055F923462A462846002104F0F9
:100308004FF9234632463046002104F049F9234686
:1003180021466434A4B23246284604F041F9234603
:1003280032462146284604F03BF921462A4628460B
:100338004FF4A07304F034F92146324630464FF4A6
:10034800A07304F02DF94FF4A07332462846BDE897
:100358007040194604F024B930B400244FF41F0546
:100368003A4B3B4A196882B041F00101196059685B
:1003780018460A405A601A6822F0847222F48032C1
:100388001A601A6822F480221A605A6822F4FE025F
:100398005A609D60009401941A6842F480321A6091
:1003A80003E0009BB3F5A06F09D0036803F40033A2
:1003B8000193009B01330093019B002BF1D0234B49
:1003C8001B6813F4003318BF01230193019B012B11
:1003D80006D04FF000621F4B9A6002B030BC7047E5
:1003E8001D491A4B08681A4640F010000860086852
:1003F80020F003000860086840F0020008605968AF
:10040800596059685960596841F480615960596860
:1004180021F47C115960596841F4E8115960196850
:1004280041F08071196013689B01FCD55368074936
:1004380023F003035360536843F0020353604B688F
:1004480003F00C03082BFAD1C3E700BF00100240E9
:100458000000FFF800ED00E000200240114A536858
:1004680003F00C03082B09D00F4B0E4A0F495268B2
:10047800C2F303128A5CD3400B617047536851681A
:10048800C3F38343C90303F1020306D552689203F9
:1004980003D4054A02FB03F3E7E7054A02FB03F32B
:1004A800E3E700BF0010024000127A0000000020BD
:1004B80000093D0000000000014B1880704700BF94
:1004C800FE07006C014B5880704700BFFE07006CA8
:1004D800054B82B05B889BB2ADF80630BDF80600CC
:1004E80080B202B0704700BFFE07006C014B188055
:1004F80059807047FE07006C034610B5074C82B060
:100508002380052006F014FB63889BB2ADF8063003
:10051800BDF8060080B202B010BD00BFFE07006C37
:10052800024A034B12891A80704700BFC40000209A
:10053800FE07006C014B5880704700BFFE07006C37
:10054800C30203EBD02300F4FC60184480B2704768
:10055800704700BF49F24132114B9B88934216D035
:1005680046F60402934212D045F2103293420ED05E
:1005780041F6631293420AD045F2105293420AD0D0
:10058800072140F27312074B19805A8070472922BD
:10059800044B1A8070474FF42452024B1A8070475C
:1005A800C4000020FE07006C49F24132114B9B88C1
:1005B800934215D046F60402934211D045F2103208
:1005C80093420DD041F66312934209D045F210527E
:1005D800934209D007210022074B19805A8070479F
:1005E8002822054B1A8070474FF42052024B1A807C
:1005F800704700BFC4000020FE07006C70B449F2C9
:1006080041343E4B9A88A24226D045F21034A24289
:1006180022D046F60404A24217D041F66314A2423F
:1006280029D045F21054A24245D09A79012A03D123
:100638001A88013A101A80B25C899A89304B1C805A
:10064800588070BC1A80598070479A79012A03D162
:100658001A88013A101A80B25A899C89284B050ACF
:100668001A80C0B20A0AC9B25D8058801C805A80BC
:10067800598070BC70479C79002C30D05D89204C23
:10068800020AC0B22580628060801A88013AC2F3EB
:100698000F20D2B2608062805A889D89531E184A02
:1006A8000C0AC3F30F20C9B2DBB215805480518005
:1006B80050805380DDE75E899D89114B741C1E8034
:1006C8006A1C060A5E80A4B20E0A92B2C0B2C9B20F
:1006D8001C8058801D805E801A805980C9E71A885E
:1006E8005E89013A101A064AC0F30725C0B216807F
:1006F8005480548055805080CEE700BFC40000204D
:10070800FE07006C30B5504C83B02288824202D973
:1007180062888A4202D8002003B030BDFFF76EFF1E
:1007280049F24132A38893425FD046F604029342CD
:100738004AD045F21032934257D041F663129342A1
:1007480076D045F2105293420CBF4FF43851222113
:100758003E4A11803D494A8892B2ADF80220BDF860
:1007680002204A8892B2ADF80420BDF8040080B295
:1007780045F21052934248D00022114649F22534DE
:10078800A342C9D044F2315423F00405A542C3D092
:100798004BF20554A342BFD04CF20554A342BBD040
:1007A80049F24134A3423BD045F21034A34237D03A
:1007B80045F21054A34233D0C30203EBD02300F414
:1007C800FC60184480B2A7E72E21204A1180518886
:1007D80089B2ADF80210BDF80210528892B2ADF895
:1007E8000420BDF8040080B2C2E72E21174A118008
:1007F800518889B2ADF80210BDF80210528892B241
:10080800ADF80420BDF8040080B2104A01025288F5
:1008180089B292B2ADF80620BDF8062092B2ADE7D3
:1008280000F47840890A40EA411141EAD22073E78E
:100838002E22064B1A805B889BB2ADF80230BDF8B9
:10084800020080B268E700BFC4000020FE07006C09
:10085800F0B5844A9379012B5AD0002B33D141F655
:10086800631394889C4200F0DA8049F241339C4239
:100878002ED10138C0B2062800F2D7807A4B03EB9C
:100888004000038941F663118C425BD136247748D6
:100898005188048043801388002054899589734ABD
:1008A800013B01391480C3F30F26C1F30F24DBB2D7
:1008B800C9B2508050805680538015805080508037
:1008C80054805180F0BD49F2413394889C42D0D085
:1008D80046F604039C4229D045F210339C4200F0AE
:1008E800948045F210539C4279D041F663139C42A0
:1008F80000F0AF80072800F29A805B4B03EB4000C2
:10090800028B42F480520321584B19805A80F0BD63
:1009180046F6040394889C4208D041F663139C422F
:100928006CD007289CBF504B185C9EE70138C0B2BA
:10093800062801D908230BE046F604044A4B03EBCA
:100948004000038946F604018C4243F0080361D154
:10095800362046F60404454943F0020308804B80DC
:100968009B0646D5138851888B4204D2184653807B
:1009780011800B46014645F2105084428CD1002567
:10098800B2F80AE09689394C0EF101000EF1020224
:10099800013B80B292B2A4F800E00EF10307658033
:1009A800208065802280C3F30F22628001391FFAFC
:1009B80087FCDBB2771CB01CF21CA4F800C0BFB2E5
:1009C800638080B2C1F30F2392B2C9B226806580DA
:1009D800278065802080638022806180F0BD013897
:1009E800C0B206282BD94FF4585000211F4B18804D
:1009F8005980138851888B42BDD9B7E70138C0B2F6
:100A080006287FF63BAF002340E70138C0B206282E
:100A180010D900233620154908804B80A0E7072805
:100A28003FF656AF104B185C56E700238AE74FF4A1
:100A3800805268E70C4B03EB40000389EAE74FF468
:100A48005855094B094903EB400003890D804B8039
:100A580086E7431EDBB2062BD5D8034901EB4303D7
:100A68001B890FE7C400002060890008FE07006C9E
:100A780008B5FFF7C3FD044A044B1189044A1980DD
:100A880012885A8008BD00BFC4000020FE07006C11
:100A9800AC000020F0B449F24134344EB388A3428C
:100AA80024D045F21034A34220D045F21054A3427A
:100AB80047D041F66314A3422BD046F60404A34260
:100AC800B3790DD0012B03D13388013B181A80B2BA
:100AD8007589274BB4891D8058801C80598012E085
:100AE800012B03D13388013B181A80B27489204B3B
:100AF800B5891C80040A5C80C0B20C0AC9B258804F
:100B08001D805C8059803189194BF0BC19805A804E
:100B18007047B3791BB93388013B181A80B27489BE
:100B2800134BB5891C80040AC0B25C8058805C8075
:100B38000C0AC9B258801D805C8059805C8059803D
:100B4800E1E774890A4BB789651C1C80040A5C803C
:100B5800ADB27C1C1D80C0B20D0AA4B2C9B25880C7
:100B68001F805D801C805980CDE700BFC400002035
:100B7800FE07006CBE22052310B50D4C2280638051
:100B880006F014FB08A3D3E9002306F093F806F057
:100B980077FB00230121FF2280B2608061806280A0
:100BA8006380638010BD00BF666666666666044043
:100BB800FE07006C30B400283CD149F24131F025E1
:100BC8004FF4A0744A4B9A881D808A4298715C80C1
:100BD80016D046F604018A421CD045F210318A42EA
:100BE80018D045F210518A4268D041F663118A4202
:100BF8006FD0222020212122188159819A8105E075
:100C08002C202A212B22188159819A81002030BC5E
:100C1800FFF71EBE2C252A242B204FF4A0714FF479
:100C2800F0721D815C81988130BC002019805A8047
:100C3800FFF70EBE49F2413101254FF4A074F020B0
:100C48002B4B9A889D718A421C805880D8D045F2D7
:100C580010318A4222D046F604018A420ED045F26B
:100C680010518A4221D041F663118A4239D022209C
:100C780021212022188159819A81C7E72C202B2114
:100C88002A22188159819A814FF4F07130BC4FF4AF
:100C9800A072002019805A80FFF7DABD2C202A2183
:100CA8002B22188159819A81EEE74FF430554FF481
:100CB80028544FF42C504FF44871B0E74FF4305596
:100CC8004FF428544FF42C504FF4F0714FF44872FD
:100CD800A7E72C252B242A204FF4F0714FF44872F3
:100CE8009FE72C252A242B204FF4487197E700BF53
:100CF800C40000202DE9F04149F24137DFF88CC1EA
:100D0800551EBCF80460013BADB20B444419BE4209
:100D18009BB2A4B22DD045F21037BE4229D046F678
:100D28000407BE4225D09CF80670012F3BD041F63F
:100D38006317BE4200F0838045F21052964245D0B8
:100D48000D4606464FF050084FF0510E53274FF00E
:100D5800520C4D4AA2F800805680A2F800E0548058
:100D6800A2F800C0558017805380BDE8F041FFF716
:100D780045BCBCF80A70444ABCF80C60050AC0B20D
:100D880017805580C4F30F2750800D0A180AE4B263
:100D9800C9B2DBB25780548016805580518050808C
:100DA8005380BDE8F08141F663129642E1D045F2E6
:100DB800105296420AD0BCF800200E46013A92B270
:100DC800141B121AA5B21C4693B2BBE7BCF80A6002
:100DD800BCF80C502C4A06F1010806F1020E070A6D
:100DE8001FFA8EFEC0B206F1030C1FFA88F81680AF
:100DF8001FFA8CFC5780AE1CA2F800806F1C508034
:100E0800A2F800E0E81CC4F30F2EA2F802E0BFB27B
:100E1800A2F800C04FEA112E4FEA132CB6B280B2E6
:100E2800E4B2C9B2DBB254801580A2F802E01780A0
:100E380051801680A2F802C010805380B1E7BCF838
:100E48000040BCF80A60A41A201A84B2224425443F
:100E58000D4CBCF80C70013A2680C0F3072E4FEAFF
:100E6800112C1E0AC2F30F22EDB2C0B2C9B2DBB216
:100E7800A4F802E06080628065802780A4F802C040
:100E88006180668063808CE7FE07006CC4000020E8
:100E98002DE9F84346F60403164E0546B2887188D4
:100EA80034889A4204FB01F44FF0000102D1B7796B
:100EB800012F0DD00846FFF7A1FB33890E4A138096
:100EC80024B1002301339C425580FBD1BDE8F8834F
:100ED8004FF02A084FF02B090846B171A6F80A808E
:100EE800A6F80C90FFF78AFBA6F80A90A6F80C80E3
:100EF800B771E2E7C4000020FE07006C2DE9F04F4F
:100F08000121A9B04FF4807004F04EF801214FF48C
:100F1800B47004F055F8A04BA0480AA90A9305F04C
:100F2800F3FC9F4B9F480AA90A9305F0EDFC9E4BE2
:100F38009E480AA90A9305F0E7FC9D4B9D480AA91B
:100F48000A9305F0E1FC032010224FF4805300249B
:100F58004FF4804101270F25062614901C922293F6
:100F68000BAA12AB19A8CDE92623CDE90B74CDE95C
:100F78000E44CDE91044CDE91244CDE91544CDE93C
:100F88001744CDE91A44CDE91E44CDE920441D9407
:100F9800239425940D952491874D199605F03CFAD4
:100FA8003946304605F04EFB322005F0E1FD2C8035
:100FB800052005F0BDFD6B88804C9BB2ADF8003074
:100FC800BDF8001089B2A1F1FF039BB2B3F57F4FC2
:100FD800A18080F0F780B1F5134F00F0F3807848D6
:100FE80006F00EFB49F24132A388934200F0AE812D
:100FF80046F60402934201F0028345F2103293420E
:1010080001F0908445F21052934200F09D8249F21B
:101018002532934201F0828349F22832934202F04A
:10102800758149F22032934202F0948249F23132BA
:10103800934202F0258445F20842934202F0228549
:1010480041F20552934202F0DD854BF2055293427C
:1010580002F030874CF20552934203F0518044F27B
:101068003152934202F0358344F23552934203F0F1
:10107800338141F66312934240F05582E2222323E2
:101088004FF002084FF004090125E02703264A4CD7
:10109800642022806380A4F80280A4F8029005F0FE
:1010A80047FD27800A20658005F062FD27800C2017
:1010B800668005F05DFD0A20258005F059FD4FF09A
:1010C800E60B0023FF2240F21F3C4FF0B00A4FF01E
:1010D800200EA4F800B0668062806280A4F800A0A8
:1010E800A4F802E063806680A4F802C040F2DF1C26
:1010F8006580A4F802C04FF0B40C6380A4F800C067
:1011080040F21F4CA4F80290A4F802C04FF0D20C91
:101118006380A4F802C04FF0B60C638063806380DC
:101128006380A4F800C04FF4037CA4F80280A4F8FC
:1011380002C04FF0220C6380A4F802C04FF0090CE3
:10114800A4F802C04FF0F00C63806380A4F800C0DC
:1011580066804FF0290626804FF0D006BE272680ED
:101168000520FE214FF0B8066380278060806180EB
:1011780065806280638026804FF00F0666804FF09E
:10118800BA066580268065802780608061806580DA
:10119800628063806380C6E101000310000C014097
:1011A80033C703180014014080FF031800180140DA
:1011B8000110031800200140FE07006CC400002045
:1011C80060A10008D32249F241355F4B1A805A8842
:1011D80092B2ADF80820BDF808205A8892B2ADF84E
:1011E8000620BDF806205A8892B2ADF80420BDF852
:1011F800041058888AB281B2ADF80210BDF8021006
:1012080089B241EA022189B2A942A1803FF4E7AE3E
:10121800BF2246F604051A805A8892B2ADF8122009
:10122800BDF812205A8892B2ADF81020BDF81020EF
:101238005A8892B2ADF80E20BDF80E205A8892B2A4
:10124800ADF80C20BDF80C1058888AB281B2ADF800
:101258000A10BDF80A1089B241EA022189B2A942EE
:10126800A1803FF4BCAED42245F210351A805A88CA
:1012780092B2ADF81A20BDF81A205A8892B2ADF889
:101288001820BDF818205A8892B2ADF81620BDF87B
:10129800161058888AB281B2ADF81410BDF814102F
:1012A80089B241EA022189B2A942A1803FF497AEEE
:1012B8004FF45A424FF45B414FF45C401A805A880D
:1012C80092B2ADF82020BDF8202019805A8892B239
:1012D800ADF81E20BDF81E10188058888AB281B259
:1012E800ADF81C10BDF81C1089B241EA022189B280
:1012F800B1F5004FA18002F0048045F210529142EE
:101308003FF46DAEA12245F261701A805A8892B2FC
:10131800ADF82620BDF826205A8892B2ADF82420D0
:10132800BDF824105A888BB292B2ADF82220BDF8CD
:10133800221089B241EA032189B2814208BF41F6ED
:101348006311A1804BE600BFFE07006C002330212B
:10135800C120CF224FF0ED0B4FF0640A4FF0030984
:101368004FF012084FF0810E4FF0E80C8527744CAF
:101378007A262280CB25638060806180A4F800B043
:10138800A4F802A0A4F80290A4F80280A4F802E04D
:10139800A4F800C067804FF010076780668025803A
:1013A8004FF0390565804FF02C0565804FF0340506
:1013B800638065804FF0020565804FF0F705258052
:1013C8004FF0200565804FF0EA0525804FF0C005F5
:1013D8006380638025804FF01B054FF0C50C658046
:1013E80020804FF001006080A4F800C06180618017
:1013F8004FF0C70121804FF0B70161804FF03601EF
:1014080021804FF0480161804FF03A0121804FF070
:10141800550161804FF0B10121804FF01A016380BE
:1014280061804FF0B6014FF0A20C21804FF00A0105
:101438006180A4F802C04FF0F20CA4F800C04FF08D
:10144800260C6380A4F800C04FF0E00C60800F22E7
:10145800A4F800C001464FF0280C4FF02A00628023
:101468004FF008096080A4F802C04FF00E0CA4F8F1
:101478000290A4F802C04FF0540CA4F80290A4F80B
:1014880002C04FF0A90CA4F802C04FF0430C4FF073
:101498000A09A4F802C04FF0E10CA4F80290628097
:1014A8006380638063806380A4F800C04FF0150CEC
:1014B8006380A4F802C04FF0170C3F25A4F802C0BF
:1014C80011262B274FF0050E4FF0070C4FF0100098
:1014D8004FF0060B4FF0560A4FF03C08A4F802C034
:1014E8006680A4F802B06780A4F802A0A4F802807D
:1014F800A4F802E0608062806580658062804FF0B9
:101508002A022780638063806180658022806380EF
:10151800638063804FF0EF0378206380268005F0B6
:1015280027FB292323800020FFF744FB0122054BDA
:101538004FF6FF701A60FFF7ABFC29B0BDE8F08FDB
:10154800FE07006C808121424FF2000ECA4C012137
:10155800A4F800E04FF0550EA4F802E04FF2010E97
:10156800A4F800E04FF0AA0EA4F802E04FF2020E31
:10157800A4F800E04FF0520EA4F802E04FF2030E78
:10158800A4F800E04FF0080E0D23A4F802E04FF491
:10159800304A4BF201094BF202084FF2040E4FF0A9
:1015A800340CA4F800E061804BF2016EA4F800A0AE
:1015B8006380A4F8009063804BF20269A4F800806D
:1015C8004BF200686380A4F80080A4F802C0A4F875
:1015D80000E0A4F802C0A4F800904BF20019A4F8A7
:1015E80002C04BF20118A4F800904BF20219638074
:1015F800A4F800806380A4F8009063804BF2007325
:101608004BF2027B23804BF200294BF2017300223C
:10161800A4F802C02380A4F802C0A4F800B0A4F87B
:1016280002C0A4F800904BF201296280A4F800904F
:101638004BF2022962802420A4F800904BF6010B9B
:101648004BF600094BF602034BF600786280A4F8CB
:1016580000906080A4F800B0608023806080A4F8C7
:1016680000804BF2003861800F25A4F800804BF20F
:1016780001386580A4F800804BF202386580A4F830
:10168800008065804BF6001525804BF60115A4F8FF
:1016980002C025804BF60215A4F802C025804BF243
:1016A8000055A4F802C04BF2015825804FF00805F8
:1016B8006580A4F800804BF202586580A4F8008089
:1016C80065804CF20025032725804BF600256780AE
:1016D80025804BF60125608025804BF60225608029
:1016E800258060804BF6004020804BF601406280E8
:1016F800782620804BF602454BF600506680258000
:10170800628020804BF601506280208066804BF614
:10171800025626804BF60066628026804BF60166EC
:10172800628026804FF0640666804DF2001626809F
:101738004DF2011662804FF0330026804DF20216FA
:10174800608026804DF20316628026804DF20416D2
:10175800A4F802C026804DF2051662804FF03A05C3
:1017680026804DF20616658026804DF207166280A7
:1017780026804FF04A0666804DF2081626804DF204
:10178800091662804FF05C0026804DF20A166080D0
:1017980026804DF20B1662804FF0810526804DF2AF
:1017A8000C16658026804DF20D16628026804FF05B
:1017B800A60666804DF20E1626804DF20F16628040
:1017C8004FF0E50026804DF21016608026804DF21D
:1017D800111661804FF0130526804DF213104DF25B
:1017E8001216658026804DF21415618020804FF016
:1017F8005400608025804DF2151561804DF2161059
:1018080025804FF082054FF0CA0A658020804DF28E
:10181800171061802080A4F802A04DF2181A022344
:10182800A4F800A04DF2191A6380A4F800A04DF2A4
:101838001A1A6280A4F800A04DF21B1A6380A4F85B
:1018480000A04DF21C1A6180A4F800A04DF21D1AE8
:1018580063804DF21E19A4F800A04DF21F184FF036
:10186800670AA4F802C04DF2201EA4F80090638015
:10187800A4F8008002E000BFFE07006CA4F802A0F4
:101888004DF2211AA4F800E06380A4F800A04FF0FC
:10189800840AA4F802A04DF2221AA4F800A04DF27E
:1018A800231A63804DF2241BA4F800A04FF0A40A69
:1018B800A4F802A0A4F800B04DF2251B6380A4F898
:1018C80000B04FF0B70BA4F802B04DF2261BA4F8F5
:1018D80000B04DF2271B6380A4F800B04FF0CF0B87
:1018E800A4F802B04DF2281BA4F800B04DF2291B51
:1018F8006380A4F800B04FF0DE0BA4F802B04DF2FC
:101908002A1BA4F800B04DF22B1B6380A4F800B08A
:101918004FF0F20BA4F802B04DF22C1BA4F800B063
:101928004DF22D1B6380A4F800B04FF0FE0BA4F815
:1019380002B04DF22E1BA4F800B04DF22F1B6780A9
:10194800A4F800B04FF0100B4DF23016A4F802B016
:101958004DF2311B26806780A4F800B04FF0330B9E
:10196800A4F802B04DF2321BA4F800B04DF2331BBC
:101978006780A4F800B04FF06D0B4FF45245A4F8FF
:1019880002B04DF201204FF0330B25806280208099
:10199800A4F802B04DF2022BA4F800B04DF2032BCC
:1019A8006280A4F800B04DF2042BA4F802C0A4F899
:1019B80000B04DF2052B6280A4F800B04FF03A0B4E
:1019C800A4F802B04DF2062BA4F800B04DF2072B94
:1019D8006280A4F800B04FF04A0BA4F802B04DF2B0
:1019E800082B4DF20929A4F800B04FF05C0B628077
:1019F8004DF20A28A4F800904DF20B2EA4F802B07C
:101A08004FF0810BA4F800806280A4F800E0A4F8ED
:101A180002B04DF20C2BA4F800B04DF20D2B6280F1
:101A2800A4F800B04FF0A60BA4F802B04DF20E2BAC
:101A38004DF20F2AA4F800B04DF2102E4FF0E50B2E
:101A48006280A4F800A0A4F802B0A4F800E04DF267
:101A5800112E6180A4F800E04FF0130EA4F802E004
:101A68004DF2122EA4F800E04DF2132E6180A4F876
:101A780000E04FF0540EA4F802E04DF2142EA4F842
:101A880000E04DF2152E6180A4F800E04FF0820EC0
:101A9800A4F802E04DF2162EA4F800E04DF2172E3D
:101AA8006180A4F800E04FF0CA0EA4F802E04DF2FD
:101AB800182EA4F800E04DF2192E6380A4F800E077
:101AC8004DF21A2E6280A4F800E04DF21B2E6380BE
:101AD800A4F800E04DF21C2E61804DF21D26A4F8FA
:101AE80000E04DF21E2E63802680A4F802C0A4F800
:101AF80000E04DF21F2E6380A4F800E04FF0670E5F
:101B08004DF22125A4F802E04DF2202E4DF22220BC
:101B1800A4F800E063804FF0840E25804DF2232561
:101B2800A4F802E04FF0A40E2080638025804DF2D7
:101B38002425A4F802E025804DF225256380258020
:101B48004FF0B70565804DF2262525804DF22725F3
:101B580063804FF0CF0E25804DF22825A4F802E0CF
:101B680025804DF22925638025804FF0DE054DF252
:101B78002A2965804DF22B284FF0F20E4DF22C25C4
:101B8800A4F800906380A4F80080A4F802E02580FF
:101B98004DF22D25638025804FF0FE0565804DF2BE
:101BA8002E2525804DF22F25678025804FF01005C2
:101BB8004DF2302A65804DF2312B4FF03305A4F8F1
:101BC80000A06780A4F800B065804DF2322525801A
:101BD8004DF23325678025804FF06D0565804DF205
:101BE800003525804DF20135628025804FF03305A0
:101BF80065804DF2023525804DF2033562802580DF
:101C08004DF20435A4F802C025804DF205356280F6
:101C180025804FF03A0565804DF2063525804DF256
:101C28000735628025804FF04A0565804DF20835FA
:101C380025804DF20935628025804FF05C054DF214
:101C48000A3665804DF20B352680628025804FF07C
:101C5800810565804DF20C3525804DF20D35628089
:101C680025804FF0A6054DF20F3065804DF20E35F8
:101C78002580628020804FF0E50060804DF21030B2
:101C880020804DF21130618020804FF01300608079
:101C98004DF2123020804DF21330618020804FF0D9
:101CA800540060804DF2143020804DF21530618070
:101CB80020804FF0820060804DF216304DF21739C7
:101CC80020804FF0CA0061804DF21838A4F80090C7
:101CD8004DF2193E60804DF21A30A4F800806380FE
:101CE800A4F800E0628020804DF21B3063802080E1
:101CF8004DF21C3061804DF21D3A20804DF21E3BA2
:101D08004DF21F306380A4F800A0A4F802C0A4F824
:101D180000B0638020804FF0670060804DF2203073
:101D280020804DF22130638020804FF08400608055
:101D38004DF2223020804DF22330638020804FF016
:101D4800A40060804DF2243020804DF2253063805D
:101D580020804FF0B70060804DF2263020804DF291
:101D68002730638020804FF0CF0060804DF228300C
:101D780020804DF22930638020804FF0DE004DF244
:101D88002B3660804DF22A30208063804DF22C3053
:101D980026804FF0F206668020804DF22D30638059
:101DA80020804FF0FE004DF22F3560804FF0100676
:101DB8004DF22E30208067804DF2303025806680CD
:101DC8004DF231362080678026804FF033066680DA
:101DD8004DF2323626804DF23336678026804FF03A
:101DE8006D0666804DF2004626804DF201466280FF
:101DF80026804FF0330666804DF2024626804DF26B
:101E0800034662804DF2044926804DF205484FF0A2
:101E18003A06A4F802C04DF2064EA4F8009062807B
:101E2800A4F8008066804DF20746A4F800E06280BE
:101E380026804FF04A0666804DF2084626804DF20D
:101E48000946628026804FF05C064DF20A4A668099
:101E58004DF20B4B4FF08106A4F800A06280A4F865
:101E680000B066804DF20C4626804DF20D46628029
:101E780026804FF0A60666804DF20E4626804DF26B
:101E88000F46628026804FF0E50666804DF21046C8
:101E980026804DF21146618026804FF01306668039
:101EA8004DF2124626804DF21346618026804FF08F
:101EB800540666804DF2144626804DF21546618020
:101EC80026804FF0820666804DF2164626804DF237
:101ED8001746618026804FF0CA064DF2194A66807F
:101EE8004DF2184626806380A4F800A04DF21A4AE5
:101EF8006280A4F800A04DF21B4A63804DF21C4595
:101F0800A4F800A04DF21D404DF21E4A61802580C4
:101F180063802080A4F802C0A4F800A04DF21F4AF4
:101F28006380A4F800A04FF0670AA4F802A04DF25D
:101F3800204AA4F800A04DF2214A6380A4F800A02A
:101F48004FF0840AA4F802A04DF2224AA4F800A097
:101F58004DF2234A6380A4F800A04FF0A40AA4F825
:101F680002A04DF2244A4DF22549A4F800A04FF0F2
:101F7800B70A63804DF22648A4F800904DF2274E28
:101F8800A4F802A04DF228494FF0CF0AA4F8008027
:101F98006380A4F800E0A4F802A0A4F800904DF231
:101FA800294963804FF0DE0AA4F800904DF22A49CF
:101FB800A4F802A0A4F800904DF22B496380A4F87D
:101FC80000904FF0F2094DF22C4BA4F802904DF21C
:101FD8002D49A4F800B06380A4F800904FF0FE09E2
:101FE800A4F802904DF22E49A4F800904DF22F4922
:101FF8006780A4F800904FF01009A4F802904DF201
:102008003049A4F800904DF231496780A4F8009057
:102018004FF03309A4F802904DF23249A4F8009029
:102028004DF233496780A4F800904FF06D09A4F889
:1020380002904DF20059A4F800904DF201596280C7
:10204800A4F800904FF03309A4F802904DF2025919
:10205800A4F800904DF203596280A4F800904DF264
:102068000459A4F802C04DF20556A4F800904FF0A8
:102078003A0962802680A4F802904DF20659A4F825
:1020880000904DF207596280A4F800904FF04A0979
:10209800A4F802904DF208594DF20955A4F80090A1
:1020A8004FF05C0962804DF20A502580A4F8029036
:1020B8004DF20B5920806280A4F800904FF08109FE
:1020C800A4F802904DF20C59A4F800904DF20D5965
:1020D8006280A4F800904FF0A609A4F802904DF28F
:1020E8000E59A4F800904DF20F596280A4F80090A0
:1020F8004FF0E509A4F802904DF21059A4F80090A9
:102108004DF211596180A4F800904FF013094DF277
:102118001358A4F802904DF21259A4F80090618067
:10212800A4F800804FF054084DF2145EA4F8028021
:102138004DF21558A4F800E061804FF0820EA4F823
:1021480000804DF21658A4F802E0A4F800804DF281
:10215800175861804DF2185AA4F800804DF2195BA7
:102168004FF0CA0E4DF21A58A4F802E0A4F800A0E5
:102178006380A4F800B06280A4F800804DF21B5878
:102188006380A4F800804DF21C586180A4F8008098
:102198004DF21D586380A4F800804DF21E58A4F833
:1021A80002C0A4F800804DF21F586380A4F8008094
:1021B8004FF06708A4F802804DF22058A4F8008078
:1021C8004DF2215863804FF0840EA4F800804DF240
:1021D8002258A4F802E0A4F800804DF22358638046
:1021E800A4F800804FF0A408A4F802804DF2245807
:1021F800A4F800804DF2255863804DF22656A4F8C5
:1022080000804FF0B70E4DF22758A4F802E0268060
:102218004FF0CF0E6380A4F800804DF22858A4F840
:1022280002E0A4F800804DF2295863804DF22A5547
:10223800A4F800804DF22B504FF0DE08A4F802807D
:10224800258063804FF0F20520804DF22C50658088
:1022580020804DF22D5063804FF0FE0520804DF216
:102268002E50658020804DF22F50678020804FF0DF
:10227800100060804DF2305020804DF23150678060
:102288004DF2325520804FF03300608025804DF2AA
:102298003355678025804FF06D054DF201606580EC
:1022A8004DF200652580628020804FF03300608009
:1022B8004DF2026020804DF2036062804DF2056AA3
:1022C80020804DF20460A4F802C04DF2066B208015
:1022D80062804DF20760A4F800A04FF03A0AA4F813
:1022E80002A0A4F800B062804FF04A0B20804DF2A3
:1022F8000860A4F802B020804DF2096062804FF0B7
:102308005C0B20804DF20A60A4F802B020804DF2E8
:102318000B6062804FF0810B20804DF20C60A4F8B6
:1023280002B020804FF0A60B4DF20D606280208035
:10233800A4F802B04DF20E6BA4F800B04DF20F6B8A
:102348006280A4F800B04FF0E50B4DF21160A4F8DC
:1023580002B04DF2106B4DF21366A4F800B04FF0C6
:10236800130A618020804DF21260A4F802A0208038
:10237800618026804FF0540666804DF214662680F0
:102388004DF21566618026804FF0820666804DF218
:10239800166626804DF21766618026804FF0CA06C1
:1023A8004DF2196066804DF21866268063802080A1
:1023B8004DF21A60628020804DF21B6063804DF2FE
:1023C8001D6920804DF21E684DF21C6061804DF23F
:1023D8001F6E20806380A4F80090A4F802C0A4F8BF
:1023E80000804DF2206C4FF0670863804DF2216544
:1023F800A4F800E0A4F802804FF0840EA4F800C00E
:102408004DF2226C63804DF2236025804FF0A408C2
:10241800A4F802E0A4F800C04DF2246C6380208088
:10242800A4F80280A4F800C04DF2256C63804DF238
:102438002660A4F800C04FF0B70CA4F802C02080B2
:102448004DF2276063804FF0CF0A20804DF228605C
:10245800A4F802A020804DF229604FF0DE0A6380C4
:1024680020804DF22A60A4F802A020804DF22B6053
:1024780063804FF0F20A20804DF22C60A4F802A08D
:1024880020804FF0FE0A4DF22D6063802080A4F872
:1024980002A04DF22E604DF22F6A20806780A4F8CA
:1024A80000A04FF0100AA4F802A04DF2306AA4F878
:1024B80000A04DF2316A6780A4F800A04FF0330AFB
:1024C8004DF2326BA4F802A04DF2336AA4F800B0C2
:1024D8006780A4F800A04FF06D0AA4F802A04FF29C
:1024E800000A4FF0550BA4F800A04FF2010AA4F817
:1024F80002B0A4F800A04FF0AA0AA4F802A04FF274
:10250800020AA4F800A04FF0520AA4F802A04FF261
:10251800030AA4F800A04FF0080AA4F802A04FF29A
:10252800040AA4F800A04BF2001A6280A4F800A0E4
:102538004FF0CC0AA4F802A04BF2011AA4F800A0AC
:102548004BF2006A6280A4F800A04FF0050AA4F8D4
:1025580002A04BF2007A7026A4F800A04BF2017A90
:102568006680A4F800A066804BF60006268061808D
:102578004BF6010121804BF6020167804BF60306FA
:1025880021804BF6004167802680678021804BF6CA
:102598000141638021804BF60241628021804CF624
:1025A8000011628021804FF0D00161804CF601114A
:1025B800218063804CF60213502523804FF4545E2B
:1025C8004FF488534FF4685C4CF603194CF6041822
:1025D80065807820A4F800906580A4F80080658064
:1025E800A4F800E06280A4F800C0A4F802B0238038
:1025F80004F09EFA4FF424532380FEF794BF11256C
:10260800454C1420258004F0B3FAD0270023072670
:102618004FF0090E4FF0D20C4FF0420B4FF01D0A4D
:102628004FF0D1094FF01A08278001226680A4F8DC
:1026380002B0A4F802A0A4F800906380A4F8028075
:10264800A4F802E0A4F800C04FF0220C6280A4F8BD
:1026580002C04FF0C00CA4F800C04FF0100C0220CC
:10266800A4F802C04FF03B0CA4F802C0638060805D
:1026780065804FF0C50525804FF0030565804FF054
:10268800C805252125804FF021056380618065807C
:102698004FF0050565804FF00A05638065804FF0AF
:1026A8006505658061804FF0770161804FF05001CA
:1026B80061804FF00F0161804FF0F8016380218045
:1026C8004FF0FE01628021804FF02001638060801E
:1026D80021804FF0360121804FF0080161804FF0D2
:1026E8003A0121804FF0550161804FF02B012A27D4
:1026F8002180DF264FF03F0163807820638062806D
:1027080061802780638063806280668004F030FA8D
:1027180029232380FEF707BFFE07006C4FF0E50B67
:1027280047F6F00A7E4B4FF48079A3F800B04FF0DB
:102738000208A3F802A04FF4E06E4FF0010A41F23C
:10274800300CA3F800A00427A3F80290A3F8008097
:10275800A3F802E04FF0030E0022A3F800E040F2D5
:102768000226A3F802C01F804FF0090C4FF008079B
:102778005A801F805E80A3F800C04FF00A0C5A8070
:10278800A3F800C04FF00C0C5A80A3F800C04FF01B
:102798000D0C5A806646A3F800C04FF00F0C5A8003
:1027A8000721A3F800C01124122013254FF0100CA4
:1027B80041F290685A80A3F800C05A801C80598062
:1027C80018805A801D805A8019805A80A3F800C04A
:1027D800A3F802801C8040F227245C8018804FF008
:1027E8009D0058804FF4C8501D8058804FF0290034
:1027F80018804FF0250058804FF02B0018805E801D
:102808004FF030061E804FF0310659801E8040F28E
:1028180003365E804FF032061E804FF003065E805E
:102828004FF035061E8040F206265E804FF03606D1
:102838001E804FF008065E804FF037061E8040F27B
:1028480006465E804FF038061E804FF441765E8063
:102858004FF039061E804FF03C0659801E8040F22A
:1028680002665E804FF03D061E804FF008065E80CF
:102878004FF050061E804FF051065A801E804FF0D0
:10288800EF065E804FF052061E804FF053065A80C6
:102898001E8040F23F165E804FF060061E804AF2AE
:1028A80000765E804FF061061E804FF001064FF003
:1028B800840C5E804FF0800B4FF06A064FF0810861
:1028C8004FF0820E4FF083091E804FF0850A5A8020
:1028D8009027A3F800B04FF4C0655A8040F2331433
:1028E800A3F8008022205A804FF09206A3F800E057
:1028F8005A80A3F800905A80A3F800C04FF0100C3B
:102908005A80A3F800A05A801F80A3F802C01E8036
:102918005D8019805C801A805880FEF704BE00BF75
:10292800FE07006C4FF0ED0BB74C4FF0FE0AA4F811
:1029380000B04FF0010B4FF0EE09A4F802B04FF0D1
:10294800DE084FF0210BA4F802A04FF0F10EA4F816
:1029580000904FF0DF0CA4F80280A4F802B04FF00A
:10296800010BA4F800E0A4F802B0A4F800C04FF0EE
:10297800100C8F27A4F802C04FF0C40CA4F800C0B4
:1029880067804FF0C607002527800D224FF0E20729
:10299800BF264FF0AA0E4FF0B00A65801921678054
:1029A800678067802680A4F802E0A4F800A062800F
:1029B800658062804FF011026580628065804FF00B
:1029C800210261804FF02D01658062806580618001
:1029D8004FF03D014FF0B10A658061804FF05D0115
:1029E80065806180658061806580A4F800A04FF0F3
:1029F800800A4FF08B01A4F802A04FF0B20E4FF0FE
:102A0800960A65804FF0020B61806580A4F802A0E9
:102A18006580A4F800E04FF0030E65806580A4F897
:102A280002B06580A4F802E04FF0B30E6580A4F808
:102A380000E04FF0B40E6580658065806580658034
:102A48006580658065806580658065806580658056
:102A58006580658065806580658065806580658046
:102A6800658065806580A4F800E061806580A4F8D1
:102A780002A04FF0A10A6580A4F802A04FF0B50AA1
:102A88006580A4F800A04FF0030AA4F802B04FF044
:102A9800B6016580A4F802A04FF0040A6580A4F886
:102AA80002A0658021804FF0B70165806580218094
:102AB8004FF03F016580658061804FF05E01658061
:102AC800642061804FF08C01658060806580618042
:102AD8004FF0AC0165804FF0700B61804FF0DC0166
:102AE800658061806580A4F802B04FF0900B658026
:102AF800A4F802B04FF0EB0B6580A4F802B0658033
:102B080061804FF0B801658021804FF0BA0165807F
:102B18002423658065806580658065806580658023
:102B280021804FF0C10163806580658065802180C8
:102B38004FF0200161804FF05401658061804FF0B3
:102B4800FF0165804FF00A0B61804FF0C20165807C
:102B58002180A4F802B06580A4F802A04FF0C30A4F
:102B680065804FF03C01A4F800A04FF03A0A61805C
:102B78006580A4F802A04FF0390A65804FF0360B43
:102B8800A4F802A04FF0370A6580A4F802A0658077
:102B980061806580A4F802B04FF0320B65804FF079
:102BA8002F0AA4F802B04FF02C0B6580A4F802A0FD
:102BB80065804FF0260AA4F802B04FF0290B658013
:102BC800A4F802B06580A4F802A04FF0230A65803B
:102BD8006380658063806580A4F802A06580618059
:102BE8004FF03601658061804FF032016580618069
:102BF8004FF02F01658061804FF02C016580618066
:102C08006580A4F802B001E0FE07006C4FF0260BC7
:102C18006580A4F802B065806380658063804FF0AA
:102C2800C40365801946A4F802A0658023804FF08C
:102C380062034FF0050A63804FF084036580A4F8AF
:102C480002A0658063804FF0F00365804FF0A40B0D
:102C580063804FF01803658063806580A4F802B034
:102C6800658063804FF05003658063804FF00C03EC
:102C780065804FF0950B63804FF017036580638084
:102C88006580A4F802B04FF0F30B65804FF0C509DA
:102C9800A4F802B04FF0E60B6580A4F802B0658096
:102CA800A4F800904FF03209A4F802904FF04409BC
:102CB80065804FF06508A4F802904FF076096580AA
:102CC800A4F8028065804FF08808A4F802904FF0BD
:102CD800C6096580A4F802806580A4F800904FF0CA
:102CE8002009C826A4F80290C9274FF0010B4FF01D
:102CF800C70965804FF0160C63806580A4F802B0A0
:102D08006580A4F800906580658065806580268070
:102D180065804FF0E00665806580658027804FF00C
:102D28001C076580462265804FF036036580658004
:102D38006580658065806580658065806580658063
:102D480065806580658065802680A4F802C06580FE
:102D580067804FF021076580678065804FF07A07AC
:102D6800638065804FF08B0362804FF0520265806C
:102D78004FF0A80E62809B46658060806580678002
:102D880065804FF0B90763804FF0990365806380D1
:102D98006580A4F802E065806780658061804FF0F7
:102DA800CA01658061804FF0D201658061804FF073
:102DB800D901658061804FF0E001658061804FF046
:102DC800F301658061804FF0E10165802180A4F8FE
:102DD80002C04FF022014FF01C0C6580A4F802C01D
:102DE800658061804FF03601658061804FF0450154
:102DF800658061804FF05201658061804FF07A01F3
:102E080065806080658061806580A4F802B04FF0BD
:102E1800990B65804FF0C401A4F802B065804FF0AB
:102E2800CA0BA4F802E04FF0B90E6580A4F802E0DE
:102E3800658061806580A4F802B04FF0D20B658090
:102E4800A4F802B04FF0D80B6580A4F802B04FF098
:102E5800E00B65804FF00B09A4F802B04FF0F301C6
:102E68004FF0E20B65804FF01B0861806580A4F885
:102E780000B0A4F802A06580A4F802904FF03409CD
:102E88006580A4F8028065804FF04408A4F8029099
:102E98004FF04F096580A4F802806580A4F802907D
:102EA8004FF0610965809726A4F80290A6224FF09A
:102EB80088084FF0B70B4FF079094FF0C20A6580C8
:102EC800A4F802906580A4F8028065806680658019
:102ED80062806580A4F802B06580A4F802A04FF073
:102EE800C70A6580D123A4F802A04FF0D60A6580EE
:102EF800DD2763806580A4F802A04FF0F30A65809F
:102F080067806580A4F802A04FF0E30A6580A4F802
:102F180000A04FF0050AA4F802A04FF00A0A658045
:102F2800A4F802A04FF01C0A6580A4F802A04FF094
:102F3800330A6580A4F802A04FF0440A6580A4F81B
:102F480002A04FF0500A65804146A4F802A04FF055
:102F5800780C4FF0620A6580A4F802A065804FF0F3
:102F6800C20AA4F802C065806180658066806580B9
:102F780062804FF0C70265804FF00106A4F802B0E6
:102F88004FF0E40E65804FF0F301A4F802A06580CD
:102F980062804FF0D50265806380658062806580BD
:102FA8006780658061806580A4F800E06680658040
:102FB80066804FF0020665804FF03C0B66804FF04C
:102FC8004B0E4FF02A06658066806580A4F802B033
:102FD8006580A4F802E04FF05D0E6580A4F802E079
:102FE8004FF0740E4FF0840A6580A4F802E04FF0A9
:102FF800930E6580A4F802A06580A4F802E04FF063
:10300800A20E6580A4F802E04FF0B30E65804FF081
:10301800CD09A4F802E04FF0D3084FF0C4014FF0F7
:10302800BE0E6580A4F802E0658061806580A4F822
:1030380002906580A4F80280658067804FF0F307EE
:10304800658067804FF0E507658027804FF00207AD
:10305800658065806580658067804FF02907658099
:10306800678065804FF04B07A4F802B04FF05D0B06
:10307800658067806580A4F802B04FF0740B6580A6
:10308800A4F802B04FF0930B6580A4F802A0658005
:10309800A4F802B04FF0A20B6580A4F802B04FF07C
:1030A800B30B6580A4F802B04FF0BE0B6580A4F89E
:1030B80002B0658061806580A4F802906580A4F8FC
:1030C80002804FF0DC0865804FF0F301A4F802801D
:1030D8004FF0E608658061806580A4F800804FF0B5
:1030E8001108A4F802804FF03408662365804FF079
:1030F8008801A4F802804FF0770CBB224FF07609C4
:103108004FF0990B4FF0560855266580A4F80280B9
:103118006580A4F802906580A4F802C06580638089
:10312800658061806580A4F802B0658062806580F2
:10313800A4F802B04FF0450B658063806580668017
:10314800658066806580A4F802B04FF0430B658007
:10315800A4F802B04FF0440B6580A4F802B04FF019
:10316800E70B65804FF0670EA4F800B0CA464FF031
:10317800320BA4F802B065804FF0870B668065803B
:10318800A4F802A04FF0990A658063806580A4F8CE
:1031980002E06580A4F802E04FF0440E6580A4F8D0
:1031A80002B06580A4F802A0658062806580A4F8FA
:1031B80002A06580A4F802C06580A4F802E04FF080
:1031C800560E6580E827A4F802E04FF0230A4FF076
:1031D800330E4FF0450B6580A4F802A065804FF0D0
:1031E800990AA4F802E065804FF0AA0EA4F802B08C
:1031F800658027804FF0870765804FF0CF0865808E
:103208004FF0E909A4F802A06580678065806180B5
:103218006580A4F802C065806380658061806580F0
:10322800A4F802E06580628065804FF04402A4F84B
:1032380002A0658063804FF0F00365804FF0500A6C
:103248006680658066806580628065806280658052
:1032580066806580A4F80090A4F802E06580658027
:1032680065802580A4F802E0A4F800806580658068
:10327800658065806580658065806580658065801E
:103288006580658065806580658065806580238050
:103298004FF0F3036580A4F802A06580658065801F
:1032A80023804FF0F90365804FF0100C23804FF016
:1032B800290B4FF006034FF03A0A4FF011086380CC
:1032C800A4F802C0A4F802B06580A4F800A0668043
:1032D800A4F8008003F04CFC35205121A4F800B07C
:1032E80053222080822365804FF0FF0021804FF019
:1032F8002C01608022806180268063802180FEF717
:1033080012B945F21051A180FDF769BE4FF0EC0BE0
:1033180041F28F0A8E4C41F2342EA4F800B0A4F882
:1033280002A04FF0EF0A4FF4807CA4F800A04FF4FD
:10333800E061A4F802E003224FF0010E022041F2FE
:103348003003A4F800E0A4F802C020806180228045
:1033580063804FF00403002523804FF00803658045
:10336800238040F2022363804FF0090323804FF04B
:103378000A03658023804FF00C0365800D262380A7
:103388004FF00F03A4F802E04FF0110926804FF028
:1033980012086580132723804FF0100A4FF00703A7
:1033A80065803220A4F800A06580A4F800906380AE
:1033B800A4F800806580278065802380A4F802E057
:1033C80003F0D6FB41F2904240F22723A4F800A074
:1033D80032206280A4F80090638003F0C9FB8A233E
:1033E800A4F800803220638003F0C2FB2921062262
:1033F8002B234FF4D05027806080218032206280B8
:103408002380668003F0B4FB20222123228032200F
:1034180065802380658003F0ABFB4FF0300B3220D2
:103428004FF0350E4FF0310A40F2046940F205388A
:103438004FF0360CA4F800B06580A4F800A0A4F8FA
:1034480002902080A4F80280A4F800E06580A4F827
:1034580000C040F6094CA4F802C04FF0370CA4F89D
:1034680000C04FF4017CA4F802C04FF0380C3C2196
:10347800A4F800C03D2240F60A2340F2013C392757
:1034880040F207764FF0500BA4F802C02780668000
:10349800218065802280638003F06AFB4FF0510A27
:1034A800A4F800B040F23F1E4FF0600C4FF05209F4
:1034B8004FF053084FF0EF0B6580A4F800A0A4F874
:1034C80002B0A4F800906580A4F80080A4F802E097
:1034D800A4F800C04AF2007CA4F802C04FF0610CC6
:1034E8004FF0010EA4F800C04FF06A0CA4F802E0F7
:1034F800A4F800C04FF0800C6580A4F800C04FF01D
:10350800810C6580A4F800C04FF0820C65804FF4F0
:10351800C062A4F800C084278526902092214FF02D
:10352800830C4FF0100A658040F23313A4F800C0F2
:10353800658027806580268065802080A4F802A0A9
:10354800218062804FF0070222806380FDF7EBBF85
:10355800FE07006C0025012741F2300E4FF4807BF6
:103568004FF0020A4FF4E0694FF003084FF0040CE3
:10357800C24C0A2125800C22658040F20226278051
:103588000920A4F802B00D23A4F800A0A4F8029022
:10359800A4F80080A4F802E0A4F800C04FF0080CDA
:1035A8006580A4F800C066802080658021806580E1
:1035B8002280678023804FF00F03658032202380AC
:1035C800658003F0D5FA072640F2011332202680E1
:1035D800638003F0CDFA4FF0100B4FF488734FF46B
:1035E800306C4FF4865A4FF011094FF012084FF023
:1035F800130EA4F800B05022A4F802A02B20A4F8BF
:10360800009044F210016680A4F800806380A4F85A
:1036180000E0A4F802C04FF0290CA4F800C06580AF
:103628002080618022804FF05102658022804FF017
:10363800EF0262804FF0520222804FF05302658001
:10364800228040F23F1262804FF0600222804FF4E5
:103658001C5262804FF0610222804FF06A0267803C
:1036680022804FF08002658022804FF081026580C1
:1036780022804FF08202658022804FF083026580AD
:1036880022804FF08402658022804FF08502658099
:1036980022804FF09002658022804FF09202A4F8B9
:1036A80002B022804FF09302658022804FF095028D
:1036B8006780228063804FF0970323804FF0980340
:1036C8006580238040F27313658026806380FDF750
:1036D8002ABF01250026694C0A202680658003F050
:1036E80047FA4FF0100841F228614FF012090E22F4
:1036F800132740F63923A4F800800A206180A4F833
:10370800009062802780638003F032FA40211522FE
:1037180050231120208061800A202280638003F0DA
:1037280027FA1E23A4F800900A20638003F020FAE9
:103738004FF4B15242F63923A4F800800A2062807F
:103748002780638003F014FA4FF4407B022108209D
:103758004FF480724FF0030A41F238094FF00A0E15
:103768004FF0300C312740F20228258062802180FA
:10377800A4F802B0A4F800A0A4F802902080A4F84D
:103788000280A4F800E06080A4F800C0668027806A
:1037980040F2024767804FF0320727804FF4837763
:1037A8003323678040F20357238067804FF0340744
:1037B80027804FF4827767804FF03507278040F2E3
:1037C800013767804FF03607278040F20777678018
:1037D8004FF03707278040F2053767804FF03807EA
:1037E80027804FF4027767804FF03907278040F62B
:1037F8000B7767804FF04107278061804FF06001A9
:1038080021804FF41C5161804FF0610121804FF0FD
:103818009001658021804FF4047161804FF092011E
:1038280021804FF485714FF0070961804FF0A00A9D
:103838004FF0040B4FF0210E232040F2331C4FF0C1
:1038480093012180A4F802B0A4F800A06280A4F833
:1038580000906580A4F80090A4F802E0A4F8009015
:103868006080A4F800906380A4F80090A4F802C0D7
:10387800A4F800A06680FDF756BE00BFFE07006CE6
:103888004FF0E70B41F2140A7D4C4FF4807EA4F808
:1038980000B04FF0020CA4F802A003214FF400700E
:1038A80041F238024FF0010AA4F800A0A4F802E09F
:1038B800A4F800C06080218062804FF00802228056
:1038C80040F2022262804FF00902002522804FF068
:1038D8000A0265804FF00C0822804FF00D026580C7
:1038E8001126A4F800800F2365804FF0120922806A
:1038F80013274FF0100A4FF007026580C820238075
:103908006580A4F800A0658026806280A4F80090F5
:1039180065802780658003F02BF941F2906240F2C0
:103928002723A4F800A0322062802680638003F059
:103938001FF9A4F800903220A4F8028003F018F9C7
:1039480029212B220B234FF40060278060802180DF
:10395800322066802280638003F00AF94FF0210A42
:1039680040F23F134FF4837120204FF401774FF05A
:1039780030094FF031084FF0320E4FF0350C2080EF
:103988004FF0360B6580A4F800A06380A4F800907F
:103998006580A4F800806180A4F800E06580A4F840
:1039A80000C0678041F20A67A4F800B067804FF052
:1039B800370740F2077227804FF038076280278068
:1039C80061804FF0390121804FF03C0162802180F5
:1039D80040F2024161804FF03D01218040F60F41E5
:1039E80061804FF0500121804FF0510165802180A6
:1039F8004FF0EF0161804FF0520121804FF05301E9
:103A0800658021804FF06001638021804FF41C5154
:103A18004FF0010361804FF06101218063804FF016
:103A28006A0323804FF08003658023804FF0810371
:103A3800658023804FF08203658023804FF08303E5
:103A4800658023804FF08403658023804FF08503D1
:103A5800658023804FF0900365804FF4C066238013
:103A680040F233104FF0100A4FF092034FF0070264
:103A7800A4F802A02380668022806080FDF753BDF1
:103A8800FE07006C01264FF4807B4FF0020A4FF4CA
:103A9800E0695B4C002526804FF0040EA4F802B0C4
:103AA8004FF0080CA4F800A041F23008A4F80290E6
:103AB80040F207274FF003090C21A4F800900D22CB
:103AC800A4F802800F23A4F800E00A206580A4F877
:103AD80000C067804FF009072780658020806580D7
:103AE800142021806580228065802380658003F012
:103AF8003FF84FF0100A41F2B0694FF011084FF04B
:103B0800170E4FF0120C4FF49C77A4F800A0132363
:103B1800A4F802904FF40060A4F800802921668080
:103B28002A22A4F800E06680A4F800C067804FF05D
:103B38000907238060802180678022804FF0A402DB
:103B4800678022804FF05002658022804FF051023A
:103B5800658022804FF0EF0262804FF0520222808F
:103B68004FF053026580228040F23F1262804FF08E
:103B7800600222804FF41C5262804FF06102228062
:103B88004FF06A02668022804FF0800265802280B2
:103B98004FF08102658022804FF08202658022808A
:103BA8004FF08302658022804FF084026580228076
:103BB8004FF08502658022804FF090026580228058
:103BC80063804FF0920323804FF0930365804FF09A
:103BD800950B23804FF003094FF48873A4F80290E3
:103BE80040F2731AA4F800B063804FF00703322044
:103BF8002380A4F802A002F0BBFFFDF794BC00BF2D
:103C0800FE07006C002507264FF0120BA84C322047
:103C18002680658002F0ACFF4FF0A40AA4F800B03B
:103C28004FF48E7B0822A4F802B0A4F800A04FF04D
:103C3800010B4FF00F0AA4F802B040F2077322807C
:103C48004FF0310EA4F802A032274FF00D094FF0C3
:103C5800300840F2036C33204FF00A0A3421A4F8EC
:103C680000A06280A4F800906280A4F800806380BD
:103C7800A4F800E066802780A4F802C020804FF4F2
:103C8800E0606080218040F2022161804FF03501C0
:103C98004FF0360C21804FF002016180A4F800C07B
:103CA80041F60F7CA4F802C04FF0370CA4F800C00E
:103CB8004FF0380C6380A4F800C04FF0390C6580D1
:103CC800A4F800C04FF03A0C6580A4F800C04FF08B
:103CD8003B0C6380A4F800C04FF03C0C6580A4F84E
:103CE80000C04FF03D0C66803846A4F800C06580DF
:103CF80002F03EFF172326803846A4F802B023803E
:103D0800A4F802B002F034FF4FF0120B13234FF067
:103D180010094FF4BD584FF0110E40F2172C4FF414
:103D28008F774FF470602A212922A4F80090A4F814
:103D38000280A4F800E0A4F802C0A4F800B06780EC
:103D4800238060802180658022804FF00A02628093
:103D5800A4F800B04FF49F7BA4F802B04FF0500BCA
:103D6800A4F800B04FF0510B6580A4F800B04FF0F4
:103D7800EF0BA4F802B04FF0520BA4F800B04FF0CC
:103D8800530B6580A4F800B040F23F1BA4F802B0C2
:103D98004FF0600BA4F800B04FF41C5B4FF0610AC1
:103DA800A4F802B04FF001024FF06A0BA4F800A08B
:103DB8006280A4F800B04FF0800B6580A4F800B0D2
:103DC8004FF0810B6580A4F800B04FF0820B65803E
:103DD800A4F800B04FF0830B6580A4F800B04FF052
:103DE800840B6580A4F800B04FF0850B6580A4F8BB
:103DF80000B04FF0900B6580A4F800B04FF0920B24
:103E08006380A4F800B04FF4407BA4F802B04FF0F0
:103E1800930BA4F800B04FF0050BA4F802B04FF0D4
:103E2800950BA4F800B04FF0970B6580A4F800B08C
:103E38004FF0980B65804FF48079A4F800B0658046
:103E480022804FF00202A4F80290212122804FF034
:103E5800040C4FF00C0E41F238024FF00F034FF0F4
:103E6800030820274FF4E0606080A4F80080142045
:103E78006280A4F800C06580A4F800E06580238013
:103E8800658027806580218065802680618002F0BA
:103E98006FFE26801420A4F802A002F069FE40F20A
:103EA800731326801420638002F062FEFDF73BBB8B
:103EB800FE07006C00254FF00109A4238F4C142045
:103EC80025806580258065802580658025806580C2
:103ED8002380A4F8029002F04BFE4FF06003238089
:103EE8004FF41C5363804FF00803238040F20223F1
:103EF8004FF4057B63804FF030032380A4F802B0B1
:103F08004FF0310BA4F800B043F2157B40F2046E79
:103F1800A4F802B04FF0330C40F6166034214FF08D
:103F2800320B42F21122A4F800B04FF03503A4F886
:103F380002E0A4F800C0608021804FF4A85162809C
:103F4800238061804FF03601218048F2075161805B
:103F58004FF03701218041F2074161804FF038016D
:103F6800218041F2034161804FF039014FF01A0C72
:103F780021804FF007084FF02001102712264FF03C
:103F8800130A4FF0110B4FF0900061802080A4F8C5
:103F980002C0142027806580A4F800B0A4F802802D
:103FA80026806580A4F800A0658002F0E1FD4FF44A
:103FB800E66240F23713278014206280A4F800B02C
:103FC800638002F0D5FD4FF4DC73268014206380F3
:103FD80002F0CEFD4FF470668021292248232A2062
:103FE800A4F800A06680208061801420228063806D
:103FF80002F0BEFD4FF4807B02234FF4E06AA4F880
:104008000090A4F802B02380A4F802A04FF0030A9D
:10401800A4F800A041F2380AA4F802A04FF0080A58
:104028004FF00A0EA4F800A04FF00C0C0D2740F238
:10403800022AA4F802A0A4F800E06580A4F800C051
:1040480065804FF00E0C27804FF0300765805121B6
:10405800A4F800C050206780EF224FF0520720805C
:1040680065802180628027804FF0530765804FF07C
:104078006002278040F23F17678022804FF41C526D
:10408800612662804FF06A074FF0900226804FF059
:10409800110BA4F802902780658022804FF09202CD
:1040A800A4F802B022804FF4C06262804FF09302FD
:1040B800228040F2024262804FF094021420228053
:1040C800638002F055FDA4F800801420A4F8029043
:1040D80002F04EFD40F27311A4F8008021226680A0
:1040E8002223A4F8008061804FF0200121806580A0
:1040F8002280658025806380FDF715BAFE07006C75
:104108000025744C1420258065802580658002F088
:104118002FFD0126A4234FF0600A4FF41C59258077
:1041280014206580258065802580658025806580D0
:104138002380668002F01CFD40F60608A4F800A063
:104148004FF0300EA4F8029040F203724FF0310C99
:1041580032274FF008090423A4F800904FF4817027
:10416800A4F80280A4F800E06280A4F800C0668089
:1041780027804FF0330763804FF0340B278060802F
:104188004FF035074FF44070A4F800B060802780E6
:1041980040F2031767804FF0360727804FF01F075C
:1041A80067804FF03707278062804FF038022280FF
:1041B8004FF039026680228063804FF0900323809D
:1041C8004FF0150363804FF0100323804FF4826390
:1041D80063804FF01103238040F2472363804FF040
:1041E800120323804FF4DE734FF4606163804FF055
:1041F800130378202380618002F0BAFC4FF0020B91
:1042080026804FF4007A4FF003094FF480764FF080
:104218000A0E66804FF00C0CA4F800B02023A4F816
:1042280002A041F23008A4F800900E270F204FF0AA
:104238000809A4F802802A21A4F800E03D22A4F885
:104248000290A4F800C06580278063802080658084
:1042580023804FF02103658014202380658021800E
:10426800628002F085FC53274FF0290B4FF02D0A8E
:104278004FF050094FF051084DF2EF0E4FF0520C2D
:10428800A4F800B040F23F16A4F802A06120A4F8F8
:1042980000906580A4F80080A4F802E0A4F800C0AB
:1042A800658027804FF06A07668093212080052269
:1042B8006580072327804FF4407065804FF480762F
:1042C8004FF092052580608021806280238066807F
:1042D800FDF729B9FE07006C4FF0150E4FF09A0C48
:1042E8002021102543F228424FF0120841F23803EA
:1042F80030274FF0130911200226614C4FF0000BB4
:10430800A4F800E06780A4F800C065802080618080
:10431800282025806280A4F800806680A4F8009098
:10432800638002F025FCA4F800802820A4F802800D
:1043380002F01EFC43F2204243F238034FF0310AE8
:10434800258046206280A4F80090638002F010FC6B
:1043580040F2024927804FF03208A4F802B040F238
:10436800073EA4F800A04FF0330C4FF4417AA4F8AC
:104378000290A4F80080A4F802E0A4F800C0A4F811
:1043880002A04FF0340AA4F800A04FF0040AA4F8E1
:1043980002A04FF0350AA4F800A040F2014AA4F8A0
:1043A80002A04FF0360AA4F800A040F2077AA4F859
:1043B80002A04FF0370AA4F800A040F2053AA4F88A
:1043C80002A04FF0380A4FF4C260A4F800A04FF0E2
:1043D800390A60804FF48072A4F800A0012360803D
:1043E8004FF4407023806280268060804FF0030085
:1043F800208041F230000821608040F608002180CA
:1044080060804FF00A00208061804FF060012180B9
:104418004FF41C5161804FF0610121804FF09001F1
:10442800638021804FF49F7161804FF09201218059
:104438004FF093016280218062804FF0A00207272D
:1044480022804FF0A30B4FF021094FF0230840F2D0
:10445800331E4FF440526280A4F800B06580278074
:1044680063802780A4F802902780A4F80280278020
:10447800A4F802C02780A4F802E0FDF754B800BFF2
:10448800FE07006C2DE9F04F46F60404DFF89CA007
:104498008346BAF8040083B0A04288469946BDF81E
:1044A80030701DD0551CA5EB0B05C845ADB214D80E
:1044B8001D4E41465846FCF7A1F8BAF808300022CC
:1044C800338025B1013294B2A5427780FAD808F139
:1044D80001081FFA88F8C145EBD203B0BDE8F08F98
:1044E8009AF80640012CDDD14FF0000C2A262B2526
:1044F800BAF800104046013989B2A1EB0B03891ABA
:1045080000974A469BB289B28AF806C0AAF80A60A0
:10451800AAF80C50FFF7B6FFAAF80A50AAF80C60E0
:104528008AF80640D9E700BFFE07006CC4000020E7
:104538002DE9F84F5E1A0136B6B20A9F121A46B331
:104548008246894600251FFA82F808F10103124CB9
:104558001FFA83FB09EB0501504689B2FCF74EF8B8
:104568000E4B1A892280BBF1000F0ED00BFB05FC05
:104578000CF10042013AC44407EB420207EB4C0C31
:1045880032F8021F62456180FAD10135ADB2AE4200
:10459800E0D8BDE8F88F00BFFE07006CC40000201B
:1045A8002DE9F04F80461846A2EB080385B0002B92
:1045B8008B460093A0EB010944DD01230393B9F175
:1045C800000F36DD01230293009B4B45B8BF4B46D5
:1045D8001F460133019324D400252E462C46DFF8CC
:1045E8009CA01FFA8BF11FFA88F0FCF707F8214B03
:1045F80001341989204BAAF800101988009BA4B22D
:104608001E44BE424D44AAF8021002DD039BF61B6D
:104618009844BD4202DD029BED1B9B44019B9C42DA
:10462800DFDD05B0BDE8F08FB9F1000F19DC009BA4
:104638000393B9F1000F0DD04FF0FF33A1EB000940
:104648000293C1E7F0D0A8EB020300934FF0FF33C9
:104658000393B4E7009B23EAE3777B1CCDE9013998
:10466800BAE709F101030193009B4F460393012325
:104678000293B1E7C4000020AC000020FE07006CE4
:104688002DE9F0411C4606460D4617460B46FFF736
:1046980087FF2346324629463046FFF781FF2346E7
:1046A8003A4621463046FFF77BFF23463A462946DD
:1046B8003846BDE8F041FFF773BF00BF2DE9F04F62
:1046C800530089B0C3F103034FF00009CDE901019C
:1046D800DFF82C81484F494C039204930CE0039A6D
:1046E8000499A9EB020301EB83030A330493531ED5
:1046F8000393039B4B457CDBBDF80C50019B02994F
:104708001FFA89F69A19A1EB050B92B21FFA8BFBD7
:10471800104659460792FBF771FFB8F80830019A1E
:1047280002992380A8183B88A1EB060A80B21FFAD9
:104738008AFA059051466380FBF760FFB8F80810C5
:1047480002982180B7F800C083199BB219460693D6
:104758000598A4F802C0FBF751FFB8F808000299C1
:104768002080B7F800C0079A691889B210460591E9
:10477800A4F802C0FBF742FFB8F80820019B22808A
:104788003A889E1BB6B2059930466280FBF736FF21
:10479800B8F80820019B22803A885D1B069BADB2C1
:1047A800628019462846FBF729FFB8F808305946B1
:1047B80023803B8830466380FBF720FFB8F8083039
:1047C800514623803B8828466380FBF717FFB8F8DB
:1047D8000830049923803B8809F10109002901EB7D
:1047E80089026380BFF67BAF931D0493039B4B45FF
:1047F80082DA09B0BDE8F08FAC000020FE07006C3B
:10480800C40000202DE9F04F1D4613F0070318BF20
:1048180001236C0803EBD50303FB04F387B00F46B1
:104828009DF8401013F0FF03059163D0364C203AF1
:10483800D2B2013B04F2754CDBB20CEB021C6344B0
:10484800804602EBC20604F6642004F2744902EBC7
:104858004201049300EB860309EB0219019304EB70
:104868008103BB46CDE90239DFF8A8A0B946059F08
:104878000C2D42D0102D43D0182D3BD1019B1C7814
:104888000BF10806B6B210E0C7B1BAF802300BF166
:10489800010B1FFA8BFB64005B45ABEB0902E4B22A
:1048A80028D9AA4211D05E4518D02306ECD5174B5B
:1048B800594640461A88FCF7EDF8E6E7144B594686
:1048C80040461A88FCF7E6F8DFE7BAF8002008F156
:1048D80001001FFA80F842450CD9CB46029A039B87
:1048E80001320292019A013301320192049A039330
:1048F8009342BDD107B0BDE8F08F029B1C78BFE79B
:10490800039B1C78BCE700BF88890008AC00002026
:1049180014000020C40000204B1E0246DBB2012018
:1049280031B1013BDBB2FF2B02FB00F0F9D170473C
:10493800704700BF2DE9F04F85B09DF8389003937C
:10494800002B37D0002605468B46904637469C1EDE
:10495800E4B24FEA590AFF2C2FD02146012201392F
:10496800C9B202EB8202FF294FEA4202F7D1B8FB33
:10497800F2F2174BA3FB0231C90801EB8101A2EB4C
:104988004101CAB22FB9039B581EB04201DDB1B133
:1049980001270021303200914B4659462846D2B2B1
:1049A800FFF730FF013CE4B25544FE2CADB206F1EE
:1049B8000106D0D105B0BDE8F08F4246D9E74B4695
:1049C8002022594628460097FFF71CFFEAE700BF58
:1049D800CDCCCCCC2DE9F04F87B016469DF84420BD
:1049E8009DF840B004930592002B3AD000258046EC
:1049F8008A462F469C1E02F00103E4B24FEA5B0987
:104A08000393FF2C3FD0214601220139C9B202EBA2
:104A18008202FF294FEA4202F7D1B6FBF2F21B4BA2
:104A2800A3FB0231C90801EB8101A2EB4101CAB223
:104A38002FB9049B581EA84201DDA9B10127039B89
:104A48003032009351465B464046D2B2FFF7DAFE59
:104A5800013CE4B2C844FE2C1FFA88F805F10105B0
:104A6800CFD107B0BDE8F08F059B514613F0800FFA
:104A7800039B18BF3022009308BF20225B464046A4
:104A8800FFF7C0FEE4E73246C9E700BFCDCCCCCC87
:104A98002DE9F04F85B00F9E871832780D460B44EC
:104AA800A2F120015E299DF838B020D81FFA83F8BA
:104AB800C3B204464FF0000ABFB203934FEA5B0942
:104AC8000EE0294620465B46CDF800A0FFF79AFE87
:104AD80016F8012F4C44A2F120015E29A4B206D891
:104AE800A74202D85D44039CADB24545E9D305B061
:104AF800BDE8F08F30B5012183B0124C042000F0DE
:104B08005FFA114B204601A90193104D01F0FCFEFC
:104B18002046022101F076FF052002F029F82846F8
:104B2800002101F063FB2846052101F0DBFB04238B
:104B380020460DEB03018DF8073001F0E5FE03B0C8
:104B480030BD00BF0008014002000310000C004007
:104B580038B5FFF7CFFF4FF60B640B4D04E028463E
:104B680001F0A2FBA0420AD80421074801F0A4FBE7
:104B78000028F4D00448BDE8384001F089BB024859
:104B8800BDE8384001F090BB000C004038B570B16A
:104B98000025441EE4B2FFF7DBFF854238BF054617
:104BA800013CE4B2FF2CADB2F5D1284638BD05462C
:104BB800284638BD70B500B300230524104E337065
:104BC8000025FFF7C5FF854238BF0546013CE4B222
:104BD800FF2CADB2F5D1738830789BB264339D4217
:104BE80006DDB0FA80F003234009013B337070BD45
:104BF8000028FCD003460020F7E70224004EDFE738
:104C0800AE00002070B5064688B00D460820012188
:104C180000F0E2F90121042000F0D2F9124B01A9B9
:104C28001248019301F070FE0023114C02A920469E
:104C3800ADF80850ADF80E300125ADF80A30ADF8E2
:104C48000C6000F0CBFD04220323204605A9CDE922
:104C58000525ADF81C3000F017FF2946204601F065
:104C68005DF808B070BD00BF0200030400080140F1
:104C7800000C004030B5411E87B04FF6FF7089B276
:104C8800FFF7C0FF01AC06ADFFF762FF03460A203D
:104C980024F8023B01F06CFFAC42F5D1012501A8D4
:104CA80000F11204034633F8021F02888A4284BFC7
:104CB80001801A80A342F6D101350A2D00F10200C5
:104CC800F0D100230DF112000DF1060232F8021F97
:104CD8000B4482429BB2F9D1084A094CA2FB032338
:104CE800C3F38F0363806188064889B202F088FCA9
:104CF8006088C0F3C03007B030BD00BFABAAAAAA15
:104D0800AE00002070A1000870B5202582B00E4EBC
:104D18000121482000F054F90C4B30460C4C01A9F5
:104D2800019301F0F1FD3046294601F069FE204665
:104D380001A9ADF8045001F0E7FD2946204601F02D
:104D48005FFE02B070BD00BF000C014020000310E0
:104D5800001801404FF41F000C4B0D4A196841F030
:104D68000101196059680A405A601A6822F0847271
:104D780022F480321A601A6822F480221A605A6873
:104D880022F4FE025A609860704700BF001002408B
:104D98000000FFF80C4BB0F5803F1A6822F480320F
:104DA8001A601A6822F480221A6008D0B0F5802FA1
:104DB80004D11A6842F4A0221A60704770471A6832
:104DC80042F480321A60704700100240002382B01B
:104DD8000949019300E04AB90A68019B02F40032CC
:104DE80001330193019BB3F5A06FF4D1024B18680E
:104DF800C0F3404002B0704700100240034A1368F5
:104E080023F0F80343EAC003136070470010024020
:104E1800014B1860704700BF00004242034A5368C4
:104E280023F47C130B430343536070470010024084
:104E3800014B1860704700BF60004242034A536844
:104E480023F0030303435360704700BF0010024080
:104E5800024B586800F00C00704700BF0010024079
:104E6800034A536823F0F00303435360704700BFBD
:104E780000100240034A536823F4E063034353607D
:104E8800704700BF00100240034A536823F4605380
:104E980043EAC0035360704700100240044A137885
:104EA80011B118431070704723EA00001070704762
:104EB80009100240014B1860704700BFD8004242F9
:104EC800034A536823F4404303435360704700BFC9
:104ED800001002400022064B01281A701A7005D0F3
:104EE800042802D105221A7070477047187070475D
:104EF80020100240014B1860704700BF80044242F6
:104F0800024A136A03431362704700BF001002404D
:104F1800014B1860704700BF3C0442421E4A10B45F
:104F2800536803F00C03082B20D01C4B03601A496C
:104F38001B4A4C68C4F30314145DE34043604C6897
:104F4800C4F30224145D23FA04F484604C68C4F3A7
:104F5800C224145DE340C360496810BCC1F38131C9
:104F68000A44127CB3FBF2F303617047536851683B
:104F7800C3F38343C90303F1020307D552689203BD
:104F880004D4064A02FB03F30360D0E7054A02FB98
:104F980003F30360CBE700BF0010024000127A0061
:104FA8001800002000093D00044A536911B1184354
:104FB8005061704723EA00005061704700100240BA
:104FC800044A936911B118439061704723EA0000BD
:104FD8009061704700100240044AD36911B1184328
:104FE800D061704723EA0000D0617047001002408A
:104FF800044AD36811B11843D060704723EA00000F
:10500800D060704700100240044A136911B1184378
:105018001061704723EA00001061704700100240D9
:10502800014B1860704700BF40044242014B1860B2
:10503800704700BF4C004242014B1870704700BFD8
:10504800071002404309012B0BD0022B094B00F03B
:105058001F000CBF1B6A5B6A23FA00F000F0010016
:105068007047044B00F01F001B6823FA00F000F0A3
:105078000100704700100240024A536A43F08073EF
:105088005362704700100240034B9B68184214BFDC
:1050980001200020704700BF00100240014B18702B
:1050A800704700BF0A10024008B5264B984218D036
:1050B800254B984221D0254B98422AD0244B984220
:1050C80003D0244B984230D008BD01214FF4002072
:1050D800FFF79AFFBDE8084000214FF40020FFF7D2
:1050E80093BF01214FF48040FFF782FFBDE80840DD
:1050F80000214FF48040FFF77BBF01214FF40030BF
:10510800FFF782FFBDE8084000214FF40030FFF7A9
:105118007BBF01214FF48020FFF776FFBDE80840F0
:1051280000214FF48020FFF76FBF01214FF480105A
:10513800FFF76AFFBDE8084000214FF48010FFF731
:1051480063BF00BF003801400044004000480040F1
:10515800004C00400050004070B50D460446038ADC
:10516800CA889BB223F440531343898903828289F6
:10517800AE8822F4B05323F00C031B0428891B0CBF
:105188006A893343034313439BB2A381A38A86B03E
:105198009BB223F440730B4301A8A382FFF7BEFE22
:1051A800DDE903311948A289844208BF0B4612F48D
:1051B800004F2A6803EB830314BF5200920003EBED
:1051C8008303B3FBF2F364221148A589A0FB0361B2
:1051D800490902FB11332A044FEA01110AD41B01C1
:1051E8003233A0FB0323C3F343130B439BB2238146
:1051F80006B070BDDB003233A0FB0323C3F34212B9
:1052080042EA01039BB2238106B070BD0038014019
:105218001F85EB5100234FF416514FF440220160D3
:10522800C0E901328381704730B40B884D888C887F
:10523800028AC9882B43234392B20B4322F470623B
:1052480013439BB2038230BC704700BF0023038026
:1052580043808380C3807047838921B19BB243F424
:1052680000538381704723F400531B041B0C838174
:10527800704700BF012310B401F01F04C1F34211AD
:10528800012903FA04F30FD002290CBF103014309F
:1052980022B1026810BC134303607047026810BC57
:1052A80022EA0303036070470C30F1E7838A9BB25C
:1052B80012B119438182704723EA01018182704744
:1052C800038A23F00F031B041B0C0382038A9BB27F
:1052D8000B430382704700BF838923F400631B04D8
:1052E8001B0C838183899BB20B438381704700BF6A
:1052F800838921B19BB243F002038381704723F075
:1053080002031B041B0C8381704700BF038A23F030
:1053180020031B041B0C0382038A9BB20B430382EA
:10532800704700BF038A21B19BB243F480430382D4
:10533800704723F480431B041B0C0382704700BF93
:10534800C1F30801818070478088C0F30800704766
:1053580083899BB243F0010383817047028BD2B2E9
:105368000283038B9BB243EA01230383704700BF88
:10537800028B02F47F420283038B9BB20B430383AD
:10538800704700BF838A21B19BB243F02003838218
:10539800704723F020031B041B0C8382704700BF57
:1053A800838A21B19BB243F010038382704723F0B4
:1053B80010031B041B0C8382704700BF838A21B132
:1053C8009BB243F008038382704723F008031B0451
:1053D8001B0C8382704700BF838931B16FEA434356
:1053E8006FEA53439BB283817047C3F30E038381F3
:1053F800704700BF838A21B19BB243F40063838264
:10540800704723F400631B041B0C8382704700BFA2
:10541800838A23F004031B041B0C8382838A9BB2B8
:105428000B438382704700BF838A21B19BB243F04C
:1054380002038382704723F002031B041B0C838240
:10544800704700BF0388194214BF0120002070472D
:10545800C94389B2018070470123C1F3421210B4D5
:10546800012A01F01F0403FA04F315D0022A0CBF25
:10547800028A828A92B21340028892B24BB1012307
:10548800090A03FA01F10A4214BF1846002010BCA9
:105498007047184610BC7047828992B21340EBE7F8
:1054A8000123090A8B40DB439BB20380704700BF8E
:1054B80030B4058C42EA031225F001052D042D0CA9
:1054C8000584048B174B24F0F3042404058C240C66
:1054D80014439842A4B2ADB21BD003F500639842BE
:1054E80017D0B0F1804F14D0A3F59833984210D05C
:1054F80003F5806398420CD003F58063984208D086
:1055080025F00A05294341F001010483018430BCD8
:10551800704725F00205294341F001010483018405
:1055280030BC7047002C014030B440F6FF45048C75
:10553800120224F010042404240C0484048B42EA8C
:1055480003322540174C038C1543A0424FEA011241
:10555800ADB29BB292B21BD004F50064A04217D042
:10556800B0F1804F14D0A4F59834A04210D004F5BF
:105578008064A0420CD004F58064A04208D023F0D7
:10558800A0030B4343F010020583028430BC70472C
:1055980023F020031A4342F010020583028430BC32
:1055A800704700BF002C014008B57C4B984242D0A0
:1055B800B0F1804F4BD07A4B984252D0794B9842F9
:1055C8002FD0794B984256D0784B98425DD0784B83
:1055D800984264D0774B984200F08380764B98428B
:1055E80067D0764B984200F08880754B984200F05F
:1055F8009080744B984200F09880734B984200F06A
:105608009E80724B984200F0A480714B984200F043
:10561800AC80704B984258D06F4B984200F0B180E4
:1056280008BD01210420FFF7EFFCBDE80840002178
:105638000420FFF7E9BC01214FF40060FFF7D8FC14
:10564800BDE8084000214FF40060FFF7D1BC0121FC
:105658000846FFF7D9FCBDE8084000210120FFF704
:10566800D3BC01210220FFF7CFFCBDE80840002190
:105678000220FFF7C9BC01210820FFF7C5FCBDE8DF
:10568800084000210820FFF7BFBC01211020FFF7C8
:10569800BBFCBDE8084000211020FFF7B5BC012184
:1056A8002020FFF7B1FCBDE8084000212020FFF7CB
:1056B800ABBC01214FF40020FFF79AFCBDE808407D
:1056C80000214FF40020FFF793BC01214FF4003074
:1056D800FFF78EFCBDE8084000214FF40030FFF7CB
:1056E80087BC01214FF40050FFF782FCBDE8084059
:1056F80000214FF40050FFF77BBC01214FF48010CC
:10570800FFF776FCBDE8084000214FF48010FFF752
:105718006FBC01214FF40010FFF76AFCBDE8084098
:1057280000214FF40010FFF763BC01214020FFF770
:105738006BFCBDE8084000214020FFF765BC012153
:105748008020FFF761FCBDE8084000218020FFF7BA
:105758005BBC01214FF48070FFF756FCBDE80840A0
:1057680000214FF48070FFF74FBC01214FF48030C7
:10577800FFF73EFCBDE8084000214FF48030FFF7FA
:1057880037BC01214FF48020FFF732FCBDE8084008
:1057980000214FF48020FFF72BBC00BF002C0140F4
:1057A8000004004000080040000C004000100040C9
:1057B8000014004000340140004C014000500140FA
:1057C8000054014000180040001C00400020004028
:1057D800004001400044014000480140274A038836
:1057E80090429BB212D002F5006290420ED0B0F106
:1057F800804F0BD0A2F59832904207D002F5806214
:10580800904203D002F58062904203D14A8823F087
:10581800700313431A4A904217D002F580629042EF
:1058280013D0CA8823F440739BB21343134A30B48D
:105838008D880C8890420380858504850DD10B7A6C
:105848000386012330BC8382704703808B8883855D
:105858000B8803850123838270470A4B9842EED058
:1058680003F540639842EAD003F580639842E6D096
:1058780003F580639842E2D0E3E700BF002C0140C3
:105888000010004000340140028CF0B422F0010204
:105898001204120C0D890284038C4E8823F0020333
:1058A80082881B04048B35431B0C2B4324F07304A0
:1058B800174D0E882404240CA8429BB292B244EAE5
:1058C80006040FD005F50065A8420BD005F5406524
:1058D800A84207D005F58065A84203D005F5806584
:1058E800A8420ED14E898D89CF8923F0080333430E
:1058F80022F440728E883D4323F004032A43334345
:1059080092B2C988828004838186F0BC0384704780
:10591800002C0140028CF0B422F010021204120C88
:105928000D890284038C4E88848823F02003028B1F
:105938001B04354322F4E6421B0C43EA05130E8888
:10594800144D1204120C42EA0622A8429BB2A4B2D9
:1059580092B20AD005F50065A84206D0C9888480AD
:105968000283F0BC0187038470474FF6BF754F89E7
:1059780023F0800343EA07138E89CF891D408B8863
:1059880024F440643E4345EA031344EA86049BB288
:10599800A4B2E3E7002C0140028CF0B422F4807238
:1059A8001204120C0D890284038C4E8823F40073B0
:1059B80084881B04828B35431B0C43EA052322F0A1
:1059C8007302154D0E881204120CA8429BB2A4B2A1
:1059D80042EA06020AD005F50065A84206D0C98841
:1059E80084808283F0BC8187038470474FF6FF353B
:1059F8004F8923F4006343EA07238E89CF891D402A
:105A08008B8824F440543E4345EA032344EA0614B1
:105A18009BB2A4B2E3E700BF002C0140028C70B433
:105A280022F480521204120C0D890284038C4E88D1
:105A3800848823F40053828B1B04354322F4E64206
:105A48001B0C43EA05330E880E4D1204120C42EA71
:105A58000622A8429BB2A4B292B20BD005F500650B
:105A6800A84207D0C9888480828370BCA0F84010FF
:105A7800038470478D8924F4804444EA8514A4B2D1
:105A8800F0E700BF002C01400B8870B50D460446B6
:105A9800002B4DD0042B00F0A180082B59D040F6E4
:105AA800FF43028C8E8822F4805212044888120C1C
:105AB80009892284A28B090341EA0621514E134029
:105AC800228C0B43B4424FEA00319BB292B289B2A6
